{
  "contractName": "simplebank",
  "abi": [
    {
      "inputs": [],
      "stateMutability": "nonpayable",
      "type": "constructor"
    },
    {
      "inputs": [
        {
          "internalType": "address",
          "name": "",
          "type": "address"
        }
      ],
      "name": "lastFunds",
      "outputs": [
        {
          "internalType": "uint256",
          "name": "",
          "type": "uint256"
        }
      ],
      "stateMutability": "view",
      "type": "function"
    },
    {
      "inputs": [],
      "name": "numberOfFunders",
      "outputs": [
        {
          "internalType": "uint256",
          "name": "",
          "type": "uint256"
        }
      ],
      "stateMutability": "view",
      "type": "function"
    },
    {
      "inputs": [],
      "name": "owner",
      "outputs": [
        {
          "internalType": "address",
          "name": "",
          "type": "address"
        }
      ],
      "stateMutability": "view",
      "type": "function"
    },
    {
      "inputs": [
        {
          "internalType": "address",
          "name": "newOwner",
          "type": "address"
        }
      ],
      "name": "transferOwnership",
      "outputs": [],
      "stateMutability": "nonpayable",
      "type": "function"
    },
    {
      "inputs": [
        {
          "internalType": "uint256",
          "name": "amount",
          "type": "uint256"
        }
      ],
      "name": "homework_LastFunds",
      "outputs": [],
      "stateMutability": "payable",
      "type": "function"
    },
    {
      "inputs": [],
      "name": "addFunds",
      "outputs": [],
      "stateMutability": "payable",
      "type": "function"
    },
    {
      "inputs": [],
      "name": "getAllFunders",
      "outputs": [
        {
          "internalType": "address[]",
          "name": "",
          "type": "address[]"
        }
      ],
      "stateMutability": "view",
      "type": "function"
    },
    {
      "inputs": [
        {
          "internalType": "uint256",
          "name": "withdrawAmount",
          "type": "uint256"
        }
      ],
      "name": "withdraw",
      "outputs": [],
      "stateMutability": "nonpayable",
      "type": "function"
    }
  ],
  "bytecode": "0x608060405234801561001057600080fd5b5033600360006101000a81548173ffffffffffffffffffffffffffffffffffffffff021916908373ffffffffffffffffffffffffffffffffffffffff160217905550610a5f806100616000396000f3fe60806040526004361061007b5760003560e01c8063a26759cb1161004e578063a26759cb1461013c578063cc87144314610146578063dc79a7fc14610162578063f2fde38b1461018d5761007b565b80632e1a7d4d146100805780636fbbb55d146100a95780637e3ff048146100d45780638da5cb5b14610111575b600080fd5b34801561008c57600080fd5b506100a760048036038101906100a29190610659565b6101b6565b005b3480156100b557600080fd5b506100be6102a2565b6040516100cb9190610776565b60405180910390f35b3480156100e057600080fd5b506100fb60048036038101906100f691906107c4565b61039b565b6040516101089190610800565b60405180910390f35b34801561011d57600080fd5b506101266103b3565b604051610133919061082a565b60405180910390f35b6101446103d9565b005b610160600480360381019061015b9190610659565b6104f7565b005b34801561016e57600080fd5b50610177610544565b6040516101849190610800565b60405180910390f35b34801561019957600080fd5b506101b460048036038101906101af91906107c4565b61054a565b005b670de0b6b3a76400008110806102195750600360009054906101000a900473ffffffffffffffffffffffffffffffffffffffff1673ffffffffffffffffffffffffffffffffffffffff163373ffffffffffffffffffffffffffffffffffffffff16145b610258576040517f08c379a000000000000000000000000000000000000000000000000000000000815260040161024f906108c8565b60405180910390fd5b3373ffffffffffffffffffffffffffffffffffffffff166108fc829081150290604051600060405180830381858888f1935050505015801561029e573d6000803e3d6000fd5b5050565b60606000805467ffffffffffffffff8111156102c1576102c06108e8565b5b6040519080825280602002602001820160405280156102ef5781602001602082028036833780820191505090505b50905060005b600054811015610393576002600082815260200190815260200160002060009054906101000a900473ffffffffffffffffffffffffffffffffffffffff1682828151811061034657610345610917565b5b602002602001019073ffffffffffffffffffffffffffffffffffffffff16908173ffffffffffffffffffffffffffffffffffffffff1681525050808061038b90610975565b9150506102f5565b508091505090565b60046020528060005260406000206000915090505481565b600360009054906101000a900473ffffffffffffffffffffffffffffffffffffffff1681565b6000339050600160008273ffffffffffffffffffffffffffffffffffffffff1673ffffffffffffffffffffffffffffffffffffffff16815260200190815260200160002060009054906101000a900460ff166104f457600080600081548092919061044390610975565b91905055905060018060008473ffffffffffffffffffffffffffffffffffffffff1673ffffffffffffffffffffffffffffffffffffffff16815260200190815260200160002060006101000a81548160ff021916908315150217905550816002600083815260200190815260200160002060006101000a81548173ffffffffffffffffffffffffffffffffffffffff021916908373ffffffffffffffffffffffffffffffffffffffff160217905550505b50565b600033905081600460008373ffffffffffffffffffffffffffffffffffffffff1673ffffffffffffffffffffffffffffffffffffffff168152602001908152602001600020819055505050565b60005481565b600360009054906101000a900473ffffffffffffffffffffffffffffffffffffffff1673ffffffffffffffffffffffffffffffffffffffff163373ffffffffffffffffffffffffffffffffffffffff16146105da576040517f08c379a00000000000000000000000000000000000000000000000000000000081526004016105d190610a09565b60405180910390fd5b80600360006101000a81548173ffffffffffffffffffffffffffffffffffffffff021916908373ffffffffffffffffffffffffffffffffffffffff16021790555050565b600080fd5b6000819050919050565b61063681610623565b811461064157600080fd5b50565b6000813590506106538161062d565b92915050565b60006020828403121561066f5761066e61061e565b5b600061067d84828501610644565b91505092915050565b600081519050919050565b600082825260208201905092915050565b6000819050602082019050919050565b600073ffffffffffffffffffffffffffffffffffffffff82169050919050565b60006106dd826106b2565b9050919050565b6106ed816106d2565b82525050565b60006106ff83836106e4565b60208301905092915050565b6000602082019050919050565b600061072382610686565b61072d8185610691565b9350610738836106a2565b8060005b8381101561076957815161075088826106f3565b975061075b8361070b565b92505060018101905061073c565b5085935050505092915050565b600060208201905081810360008301526107908184610718565b905092915050565b6107a1816106d2565b81146107ac57600080fd5b50565b6000813590506107be81610798565b92915050565b6000602082840312156107da576107d961061e565b5b60006107e8848285016107af565b91505092915050565b6107fa81610623565b82525050565b600060208201905061081560008301846107f1565b92915050565b610824816106d2565b82525050565b600060208201905061083f600083018461081b565b92915050565b600082825260208201905092915050565b7f796f752063616e2774207769746864726177206d6f7265207468616e2031206560008201527f7468657200000000000000000000000000000000000000000000000000000000602082015250565b60006108b2602483610845565b91506108bd82610856565b604082019050919050565b600060208201905081810360008301526108e1816108a5565b9050919050565b7f4e487b7100000000000000000000000000000000000000000000000000000000600052604160045260246000fd5b7f4e487b7100000000000000000000000000000000000000000000000000000000600052603260045260246000fd5b7f4e487b7100000000000000000000000000000000000000000000000000000000600052601160045260246000fd5b600061098082610623565b91507fffffffffffffffffffffffffffffffffffffffffffffffffffffffffffffffff82036109b2576109b1610946565b5b600182019050919050565b7f4f6e6c7920746865206f776e65722063616e20646f2074686174000000000000600082015250565b60006109f3601a83610845565b91506109fe826109bd565b602082019050919050565b60006020820190508181036000830152610a22816109e6565b905091905056fea264697066735822122099c76471e723aa7f6d4aff0cdbe76ad936c92fd1c6acbc8fa74f1dcce6b8b71564736f6c63430008110033",
  "immutableReferences": {},
  "source": "// SPDX-License-Identifier: MIT\r\npragma solidity >=0.4.22 <0.9.0;\r\n \r\ncontract simplebank {\r\n    //distinct funders\r\n    uint public numberOfFunders;\r\n    mapping(address => bool) private funders;\r\n    mapping(uint => address) private lutFunders;\r\n    address public owner; \r\n\r\n    mapping (address => uint) public lastFunds;\r\n\r\n\r\n    //run when the contract runs (one time) - to remember the owner right now\r\n    constructor(){\r\n        owner = msg.sender;\r\n    }\r\n\r\n    //A modifier is like a function that can be used to add checks to a function before it is executed\r\n    modifier onlyOwner(){\r\n        require(msg.sender == owner, \"Only the owner can do that\");\r\n        _;\r\n    }\r\n\r\n    function transferOwnership(address newOwner) external onlyOwner {\r\n        owner = newOwner;\r\n    }\r\n\r\n\r\n    function homework_LastFunds(uint amount) public payable{\r\n        address last_funder = msg.sender;\r\n        lastFunds[last_funder] = amount;\r\n    }\r\n\r\n    function addFunds() external payable {\r\n        address funder = msg.sender;\r\n        if(!funders[funder]){\r\n            uint index = numberOfFunders++;\r\n            funders[funder] = true;\r\n            lutFunders[index] = funder;\r\n        }\r\n    }\r\n//memory -  ,   '\r\n//external - we can call the func only from outside - functions from the same cotract cant call it\r\n// view - the func don't change the state of contract (read only KAZE) - good for gaz!\r\n    function getAllFunders() external view returns(address[] memory){\r\n        address[] memory _funders = new address[](numberOfFunders);\r\n        for(uint i=0; i< numberOfFunders; i++){\r\n            _funders[i] = lutFunders[i];\r\n        }\r\n        return _funders;\r\n    }\r\n\r\n    function withdraw(uint withdrawAmount) external {\r\n        //msg to confirm\r\n        require(withdrawAmount < 1000000000000000000 || msg.sender == owner, \"you can't withdraw more than 1 ether\");\r\n       payable (msg.sender).transfer(withdrawAmount);\r\n    }\r\n\r\n}\r\n\r\n\r\n//const instance = await simplebank.deployed()\r\n//instance.addFunds({value:\"500000000000000000\", from: accounts[0]})\r\n//instance.addFunds({value:\"500000000000000000\", from: accounts[1]})\r\n// const funds = instance.funds()\r\n//instance.withdraw(\"1000000000000000000\",{from:accounts[1]})\r\n//instance.transferOwnership(\"0xda3bd8fecFF11A364C604a0793b4Db342112726a\")",
  "sourcePath": "C:\\Users\\yuval\\tech2023\\web3test\\contracts\\simplebank.sol",
  "compiler": {
    "name": "solc",
    "version": "0.8.17+commit.8df45f5f.Emscripten.clang"
  },
  "schemaVersion": "3.4.11",
  "updatedAt": "2023-01-13T11:55:02.418Z",
  "devdoc": {
    "kind": "dev",
    "methods": {},
    "version": 1
  },
  "userdoc": {
    "kind": "user",
    "methods": {},
    "version": 1
  }
}