{
    "contractName": "simplebank",
    "abi": [
        {
            "inputs": [],
            "name": "funds",
            "outputs": [
                {
                    "internalType": "uint256",
                    "name": "",
                    "type": "uint256"
                }
            ],
            "stateMutability": "view",
            "type": "function"
        }
    ],
    "bytecode": "60806040526101f4600055348015601557600080fd5b50607d806100246000396000f3fe6080604052348015600f57600080fd5b506004361060285760003560e01c8063c89f2ce414602d575b600080fd5b603560005481565b60405190815260200160405180910390f3fea2646970667358221220632deb1f1fa6764a75bc53669115166c85272877dc2e53234ca024a14a66f38264736f6c63430008110033",
    "sourcePath": "c:/Users/yuval/tech2023/solidity_01/contracts/simplebank.sol",
    "compiler": {
        "name": "solc",
        "version": "0.8.17+commit.8df45f5f"
    },
    "functionHashes": {
        "funds()": "c89f2ce4"
    },
    "gasEstimates": {
        "creation": {
            "codeDepositCost": "25000",
            "executionCost": "22181",
            "totalCost": "47181"
        },
        "external": {
            "funds()": "2261"
        }
    }
}